:100000000C9434000C9453000C9451000C94510047
:100010000C9451000C9451000C9451000C9451001C
:100020000C9451000C9451000C9451000C9451000C
:100030000C9451000C9451000C9451000C945100FC
:100040000C9451000C9451000C9451000C945100EC
:100050000C9451000C9451000C9451000C945100DC
:100060000C9451000C94510011241FBECFEFD8E026
:10007000DEBFCDBF11E0A0E0B1E0E0E0F6E002C0FD
:1000800005900D92A03EB107D9F712E0A0EEB1E0C5
:1000900001C01D92A33EB107E1F70E94CE000C946F
:1000A000FE020C9400001F920F920FB60F921124C3
:1000B0002F933F938F939F93EF93FF9380918100B2
:1000C0008E7F80938100809181008B7F809381005F
:1000D00010928500109284004C9915C02EB3309177
:1000E000E00181E090E002C0880F991F3A95E2F7A5
:1000F000282B2EBB8091E00181508093E00181E0AC
:100100008093E20216C08091E202882391F03EB310
:100110002091E00181E090E002C0880F991F2A95AC
:10012000E2F7809583238EBB8091E001815080931C
:10013000E0018091E00187FF0FC0E091E102F0E073
:100140008EB3EF51FE4F80838091E1028F5F8093E9
:10015000E10286E08093E0018091810081608093DC
:10016000810080918100846080938100FF91EF91F4
:100170009F918F913F912F910F900FBE0F901F90E5
:100180001895CF93DF93EC0103C021960E9496024D
:1001900088818823D1F7DF91CF9108958F929F9224
:1001A000AF92BF92CF92DF92EF92FF920F931F9385
:1001B000DF93CF93CDB7DEB72D970FB6F894DEBFA0
:1001C0000FBECDBF259A2A9A2C9A2B9A84E060E024
:1001D0000E94600201EE11E0C80160E070E040E0C2
:1001E00051E00E94B20286E08093E0011092E102A9
:1001F0001092E2021EBAE89A8091690082608093B0
:100200006900809169008E7F809369008FB7806854
:100210008FBF80E091E00E94C10085E191E00E94E3
:10022000C10083E090E0BE016C5F7F4F4AE050E088
:100230000E94B9020E94C1008EE291E00E94C100BA
:100240004E010894811C911C96E0A92EB02EE12E3F
:1002500089E0C82ED12CCC0EDD1E809184009091B7
:10026000850082549F40C8F3809181008E7F8093E7
:100270008100809181008B7F8093810010928500A6
:100280001092840020E009C0EF51FE4F80818F7BE7
:1002900080838081805E80832F5FE22FF0E08091F9
:1002A000E10290E00197E817F90774F302E311E027
:1002B00004C00F5F1F4F0E949602F80180818823BF
:1002C000C1F78091E10290E0B4014AE050E00E9461
:1002D000B9028C0104C00F5F1F4F0E949602F80103
:1002E00080818823C1F78DE00E9496020091E1028F
:1002F0000150E02FF0E0EF51FE4F8081853219F080
:100300000023B1F702C0002319F48BE491E0C7C0C9
:1003100084E791E00E94C100F02EFA940F2D10E0C6
:100320000F511E4FF80180810E94960282E891E0F1
:100330000E94C100F8018081823409F0B2C084E8D3
:1003400091E00E94C10003C080810E949602FA944D
:10035000EF2DF0E0EF51FE4F80818E35A9F782E856
:1003600091E00E94C1008EE891E00E94C10003C0AC
:1003700080810E949602FA94EF2DF0E0EF51FE4F3B
:1003800080818E35A9F782E891E00E94C1001F2D7F
:100390001150E12FF0E0EF51FE4F8081898711501D
:1003A000E12FF0E0EF51FE4F80818A871150E12F5D
:1003B000F0E0EF51FE4F80818B871150E12FF0E08C
:1003C000EF51FE4F80818C871D8685E991E00E9468
:1003D000C100C6010E94C10082E891E00E94C100F4
:1003E0001150E12FF0E0EF51FE4F808189871150CD
:1003F000E12FF0E0EF51FE4F80818A871150E12F0D
:10040000F0E0EF51FE4F80818B871C8682EA91E0FD
:100410000E94C100C6010E94C10082E891E00E94D2
:10042000C10081EB91E00E94C1001150E12FF0E08A
:10043000EF51FE4F808189871150E12FF0E0EF519D
:10044000FE4F80818A871150E12FF0E0EF51FE4F7F
:1004500080818B87012F0150E02FF0E0EF51FE4F9C
:1004600080818C871D86C6010E94C10082E891E0D0
:100470000E94C1008AEC91E00E94C10004C080810A
:100480000E9496020150E02FF0E0EF51FE4F808174
:100490008E3519F080818F3391F782E891E00E94C8
:1004A000C1001092E102A092E0011092E2028B2DB5
:1004B0009E2D60E070E040E051E00E94B202CDCE9F
:1004C000833049F0843059F0823091F481E0809398
:1004D000C50080EA10C01092C50089E10CC01092DE
:1004E000C50082E28093C4008091C000826008C091
:1004F0001092C50087E68093C4008091C0008D7F74
:100500008093C00088E18093C100662371F060FF92
:1005100005C08091C10080688093C10061FF05C063
:100520008091C10080648093C1000895982F8091CC
:10053000C00085FFFCCF9093C6000895FC0107C062
:100540008091C00085FFFCCF31969093C6009081CA
:100550009923B1F708958091C00087FFFCCF809167
:10056000C6000895DC0101C06D9341505040E0F792
:100570000895FB019F01E8944230C4F04532B4F481
:100580004A3029F497FB1EF4909581959F4F642F74
:1005900077270E94EA02805D8A330CF0895D81939F
:1005A000CB010097A1F716F45DE251931082C901C7
:1005B0000C94DA02DC01FC01672F71917723E1F7DB
:1005C000329704C07C916D9370836291AE17BF0720
:1005D000C8F30895AA1BBB1B51E107C0AA1FBB1F8C
:1005E000A617B70710F0A61BB70B881F991F5A95BF
:1005F000A9F780959095BC01CD010895F894FFCF9F
:1006000053797374656D20696E697469616C697A78
:100610006564210D00436865636B696E6720666FD2
:1006200072206461746120616674657220006D736C
:100630000D000D0D4D61676E657469632063617215
:1006400064206469676974733A2000496E76616C4E
:100650006964206361726420666F726D61742E201C
:100660005472792073776970696E67206167616978
:100670006E2E0D004361726420466F726D61743A94
:1006800020000D004163636F756E743A20004E6167
:100690006D653A200045787069726174696F6E3AD1
:1006A00020005365727669636520636F64653A2044
:1006B0000050494E20566572696669636174696FBE
:1006C0006E2056616C75653A2000446973637265EB
:1006D00074696F6E61727920446174613A20000020
:00000001FF
